:100000000C945D000C9485000C9485000C94850084
:100010000C9485000C9485000C9485000C9485004C
:100020000C9485000C9485000C9485000C9485003C
:100030000C9485000C9485000C9485000C9485002C
:100040000C940C040C9485000C9485000C94850091
:100050000C9485000C9485000C9485000C9485000C
:100060000C9456040C948500000000002400270026
:100070002A0000000000250028002B0004040404CE
:100080000404040402020202020203030303030342
:10009000010204081020408001020408102001021F
:1000A00004081020000000080002010000030407FB
:1000B0000000000000000000710511241FBECFEFFA
:1000C000D8E0DEBFCDBF11E0A0E0B1E0EAE0FEE0A5
:1000D00002C005900D92A237B107D9F722E0A2E73E
:1000E000B1E001C01D92AA32B207E1F710E0CDE500
:1000F000D0E004C02197FE010E94FD06CC35D10757
:10010000C9F70E9491050C9403070C94000090E03D
:10011000FC01EC55FF4F2491FC01E057FF4F349157
:10012000FC01E458FF4FE491EE23C9F0222339F09B
:10013000233001F1A8F4213019F1223029F1F0E047
:10014000EE0FFF1FEE58FF4FA591B4918FB7F894B3
:10015000EC91611126C030953E233C938FBF0895EA
:100160002730A9F02830C9F0243049F78091800069
:100170008F7D03C0809180008F7780938000DFCFD8
:1001800084B58F7784BDDBCF84B58F7DFBCF809125
:10019000B0008F778093B000D2CF8091B0008F7D78
:1001A000F9CF3E2BDACF3FB7F89480910E029091B1
:1001B0000F02A0911002B091110226B5A89B05C0B4
:1001C0002F3F19F00196A11DB11D3FBFBA2FA92FD6
:1001D000982F8827BC01CD01620F711D811D911DD3
:1001E00042E0660F771F881F991F4A95D1F708953F
:1001F0008F929F92AF92BF92CF92DF92EF92FF9237
:100200004B015C010E94D3006B017C010E94D30072
:100210006C197D098E099F09683E7340810591051F
:10022000A8F321E0821A9108A108B10888EEC80E4F
:1002300083E0D81EE11CF11C81149104A104B104D7
:1002400029F7FF90EF90DF90CF90BF90AF909F90F5
:100250008F900895AF92BF92CF92DF92EF92FF926C
:100260000F931F93CF93DF936C017B018B01040FDE
:10027000151FEB015E01AE18BF08C017D10759F07A
:100280006991D601ED91FC910190F081E02DC601BC
:100290000995892B79F7C501DF91CF911F910F91B6
:1002A000FF90EF90DF90CF90BF90AF9008950895AA
:1002B0001F93CF93DF93C1E0C0937301882399F11B
:1002C000D091B8001091BA008091BC008A7B8093D5
:1002D000BC0060E082E10E94870060E083E10E9450
:1002E00087001092DD01C093DC011092B70161E03C
:1002F00082E10E94870061E083E10E948700809193
:10030000B9008E7F8093B9008091B9008D7F809372
:10031000B90088E48093B80085E48093BC00109312
:10032000BA00D093B800DF91CF911F91089520912A
:100330009401260F3327331F21323105ECF420912D
:10034000DD01FC0190E080E0243069F082E0089556
:10035000A09194012191AC014C585E4FA40FB52F90
:10036000B11D2C930196861798F380919401680F24
:100370006093940180E0089581E0089508958FEFDF
:100380009FEF08958FEF9FEF08958091720190E0A5
:100390009195819591090895CF92DF92EF92FF9206
:1003A0000F931F93CF93DF937C01CB018A012091A0
:1003B000E301222389F0EB016B01C40ED51ECC159D
:1003C000DD0569F06991D701ED91FC910190F08113
:1003D000E02DC7010995F3CF642F0E949701C80152
:1003E000DF91CF911F910F91FF90EF90DF90CF9011
:1003F0000895CF93DF931F92CDB7DEB76983209125
:10040000E3012223F9F020910602203258F021E086
:1004100030E0FC013383228390E080E00F90DF9195
:10042000CF9108958091E401E82FF0E0EB51FE4F69
:10043000998190838F5F8093E4018093060281E02D
:1004400090E0ECCF61E0CE0101960E949701F7CFDA
:10045000CF92DF92EF92FF920F931F93CF93DF9390
:10046000FC01C48121E02093E301C09305021092B6
:10047000E401109206028385682B82E192E00E94DB
:10048000F901D0910602D13208F092C00E94D30047
:100490006B017C018091DD01811165C082E0809358
:1004A000DD0181E08093DC018FEF8093DB0110920E
:1004B000DA01D093D901A5EEB1E0E9EBF1E080E0FB
:1004C000D81385C01092B8018091B801CC0FC82B09
:1004D000C093B8018091B701813009F07CC01092BF
:1004E000B7010E94D3006B017C018091B801809319
:1004F000BB008091DF019091E001A091E101B091FA
:10050000E201892B8A2B8B2B99F00E94D30000915A
:10051000DF011091E0012091E1013091E2016C19BD
:100520007D098E099F090617170728073907E0F18B
:100530008091BC0083FDD9CF85EC8093BC000E94E4
:10054000D3006B017C018091DD01823009F445C04C
:100550008091DB018F3F61F18091DB01803241F1BD
:100560008091DB0125C08091DF019091E001A09195
:10057000E101B091E201892B8A2B8B2B09F48ACF00
:100580000E94D3000091DF011091E0012091E10170
:100590003091E2016C197D098E099F090617170732
:1005A0002807390708F076CF8091DE010E945801B4
:1005B0001092E401109206021092E301DF91CF91B4
:1005C0001F910F91FF90EF90DF90CF9008959D9134
:1005D00091938F5F75CF85EEB0CF8091DF019091C1
:1005E000E001A091E101B091E201892B8A2B8B2BD4
:1005F00009F4A9CF0E94D3000091DF011091E0011E
:100600002091E1013091E2016C197D098E099F0969
:10061000061717072807390708F095CFC5CF90E0D0
:1006200080E008958F929F92AF92BF920F931F9395
:10063000CF93DF93CDB7DEB7A1970FB6F894DEBFA7
:100640000FBECDBF19A2423008F44AE08E010F5D03
:100650001F4F842E912CB12CA12CA50194010E9436
:10066000DB06E62FB901CA01EA3044F5E05DD801A6
:10067000EE938D01232B242B252B79F790E080E03E
:10068000109769F0FD0101900020E9F73197AF0163
:100690004A1B5B0BBD018EE192E00E942A01A196EC
:1006A0000FB6F894DEBF0FBECDBFDF91CF911F9183
:1006B0000F91BF90AF909F908F900895E95CD7CF36
:1006C000FC0101900020E9F73197AF01481B590B5D
:1006D000BC018EE192E00C942A010F931F93CF93FB
:1006E0008C01C62F0E9428026C2F6460C8010E94F2
:1006F00028026C2F6B7FC8010E94280283EC90E0D7
:100700000197F1F7CF911F910F9108950F931F93C8
:10071000CF93DF938C01D62FC42F607F642B0E9470
:100720006D0380E1D89FB00111246C2BC801DF91CB
:10073000CF911F910F910C946D03CF93DF93CDB7A1
:10074000DEB728970FB6F894DEBF0FBECDBF98E096
:10075000E0E0F1E0DE01119601900D929A95E1F74B
:1007600090912602981708F48FEF90E0880F991F58
:1007700021E030E02C0F3D1F820F931FFC016081B0
:10078000606840E08EE192E028960FB6F894DEBFF4
:100790000FBECDBFDF91CF910C94860341E00E9444
:1007A000860381E090E0089585ED8093BC00809100
:1007B000DF019091E001A091E101B091E201079683
:1007C000A11DB11D23E0B695A795979587952A950C
:1007D000D1F72091BC0024FD03C01092DD010895E3
:1007E0004091DF015091E0016091E1017091E201DF
:1007F000452B462B472B69F30097A105B10541F026
:100800002AE22A95F1F700C00197A109B109E1CFC9
:100810008091DE010C9458011F920F920FB60F9237
:1008200011242F933F938F939F93AF93BF93809106
:100830000A0290910B02A0910C02B0910D0230912E
:10084000090223E0230F2D3758F50196A11DB11D94
:100850002093090280930A0290930B02A0930C024A
:10086000B0930D0280910E0290910F02A0911002A0
:10087000B09111020196A11DB11D80930E029093BB
:100880000F02A0931002B0931102BF91AF919F91FC
:100890008F913F912F910F900FBE0F901F90189541
:1008A00026E8230F0296A11DB11DD2CF1F920F92F1
:1008B0000FB60F9211242F933F934F935F936F9333
:1008C0007F938F939F93AF93BF93EF93FF93809109
:1008D000B900887F803609F44AC0F0F5883209F4FF
:1008E000A5C018F5803109F499C0B8F4882309F43B
:1008F000F5C0883009F492C0FF91EF91BF91AF919C
:100900009F918F917F916F915F914F913F912F9127
:100910000F900FBE0F901F901895883109F486C074
:10092000803251F78093DB0114C0803409F49BC0FE
:1009300040F48033B9F38833F9F68093DB0185EC1A
:10094000AEC0803509F483C0883509F494C088347A
:1009500099F60E94D403D0CF883909F48AC038F5BB
:10096000883729F050F4883611F0803729F683E073
:100970008093DD011092B60155C0883809F479C022
:10098000803919F0803809F0B7CF8091B6018032F4
:1009900008F06FC0E091B60181E08E0F8093B60140
:1009A0008091BB00F0E0EA56FE4F80833BC0803B65
:1009B00039F0D0F4803A09F477C0883A09F09CCF36
:1009C00084E08093DD011092950110929401F0E093
:1009D000E0E009958091940181110FC081E080933E
:1009E00094011092740109C0803C09F4A8CF883C9E
:1009F00009F4A5CF883B09F07FCFE091950181E014
:100A00008E0F80939501F0E0EC58FE4F808180932B
:100A1000BB00909195018091940129C08091B8010B
:100A20008093BB0085EC8093BC0066CF9091DA0187
:100A30008091D901981758F5E091DA0181E08E0F85
:100A40008093DA01F0E0E754FE4F8081E9CFE09136
:100A5000DA0181E08E0F8093DA018091BB00F0E033
:100A6000E754FE4F80839091DA018091D901981765
:100A7000C8F285E8D8CFE091DA0181E08E0F80934B
:100A8000DA018091BB00F0E0E754FE4F8083809153
:100A9000DC0181115ECF81E08093B70184EA80930D
:100AA000BC001092DD0128CF85EC8093BC00109231
:100AB000DD018091B601803230F4E091B601F0E0C2
:100AC000EA56FE4F10826091B60170E086E991E02F
:100AD000F0E0E0E009951092B6010ECF1092DB0134
:100AE00038CFE2E1F2E01382128288EE93E0A0E0D8
:100AF000B0E084839583A683B7838CE091E09183F3
:100B00008083EEE1F2E0138212828EE191E0918324
:100B1000808387E2848380E1818782E082871386F5
:100B20000895789484B5826084BD84B5816084BD65
:100B300085B5826085BD85B5816085BD80916E007B
:100B4000816080936E0010928100809181008260AC
:100B500080938100809181008160809381008091E9
:100B600080008160809380008091B10084608093D8
:100B7000B1008091B00081608093B00080917A00D4
:100B8000846080937A0080917A00826080937A00FA
:100B900080917A00816080937A0080917A008068E9
:100BA00080937A001092C100809123028860809324
:100BB000230212E01093260262E370E080E090E0EE
:100BC0000E94F800609129028EE192E00E942802C2
:100BD00068EE73E080E090E00E94F80060E38EE150
:100BE00092E00E946D03CBE4D6E4CE010197F1F7C9
:100BF00060E38EE192E00E946D032197F1F760E3DC
:100C00008EE192E00E946D0383E592E00197F1F797
:100C100060E28EE192E00E946D03609123026062C7
:100C200040E08EE192E00E94860384E080932402FB
:100C300040E06CE08EE192E00E94860340E061E0DB
:100C40008EE192E00E948603CBE3DFE1CE010197C3
:100C5000F1F71093250240E066E08EE192E00E94F9
:100C6000860340E062E08EE192E00E9486032197D5
:100C7000F1F788E08093290260E08EE192E00E9423
:100C8000280280E00E949D0386E291E00E946003BA
:100C900081E00E949D0388E391E00E946003E8E9FF
:100CA000F0E02491E4E8F0E08491882399F090E06A
:100CB000880F991FFC01E859FF4FA591B491FC01E1
:100CC000EE58FF4F859194918FB7F894EC91E22BF9
:100CD000EC938FBF60ED77E080E090E00E94F80039
:100CE00040E061E08EE192E00E9486038BE39FE1A9
:100CF0000197F1F710E4C0E0D0E010937C00809100
:100D00007A00806480937A0080917A0086FDFCCF1F
:100D10008091780090917900909308028093070267
:100D200080E00E949D0388E491E00E946003C090EF
:100D30000702D09008020D2C000CEE08FF084AE0D4
:100D4000C701B601F7FE0EC041E06DE28EE192E010
:100D50000E94860366277727CB016C197D098E09CF
:100D60009F094AE00E9412038091070290910802B5
:100D700081399140BCF081E00E949D0384E591E0BF
:100D80000E94600361E088E00E94870064EF71E0E8
:100D900080E090E00E94F800209709F4AECF0E9416
:100DA0000000ABCF81E00E949D0385E691E00E94A8
:100DB000600360E0E8CFA1E21A2EAA1BBB1BFD0175
:100DC0000DC0AA1FBB1FEE1FFF1FA217B307E4072A
:100DD000F50720F0A21BB30BE40BF50B661F771F82
:100DE000881F991F1A9469F7609570958095909562
:100DF0009B01AC01BD01CF010895EE0FFF1F0590CF
:0A0E0000F491E02D0994F894FFCF5F
:100E0A00000040001400540000000000F901CC0169
:100E1A000F03BE01C501C201BF0100000000CE03DD
:100E2A002A010F035701476173204C65616B204407
:100E3A0065746563746F7200496E697469616C697F
:100E4A007A696E672E2E2E004761732056616C7583
:100E5A00653A200021212120474153204C45414B2E
:100E6A002021212100536166652020202020202096
:020E7A00200056
:00000001FF
